{
  "contractName": "Lending",
  "abi": [
    {
      "inputs": [],
      "stateMutability": "nonpayable",
      "type": "constructor"
    },
    {
      "inputs": [
        {
          "internalType": "address",
          "name": "",
          "type": "address"
        }
      ],
      "name": "Lenders",
      "outputs": [
        {
          "internalType": "uint256",
          "name": "ID",
          "type": "uint256"
        },
        {
          "internalType": "uint256",
          "name": "lendingDate",
          "type": "uint256"
        },
        {
          "internalType": "uint256",
          "name": "amount",
          "type": "uint256"
        }
      ],
      "stateMutability": "view",
      "type": "function"
    },
    {
      "inputs": [],
      "name": "lendersId",
      "outputs": [
        {
          "internalType": "uint256",
          "name": "",
          "type": "uint256"
        }
      ],
      "stateMutability": "view",
      "type": "function"
    },
    {
      "inputs": [],
      "name": "owner",
      "outputs": [
        {
          "internalType": "address",
          "name": "",
          "type": "address"
        }
      ],
      "stateMutability": "view",
      "type": "function"
    },
    {
      "inputs": [
        {
          "internalType": "address",
          "name": "_user",
          "type": "address"
        },
        {
          "internalType": "uint256",
          "name": "_value",
          "type": "uint256"
        }
      ],
      "name": "enterPool",
      "outputs": [],
      "stateMutability": "nonpayable",
      "type": "function"
    },
    {
      "inputs": [
        {
          "internalType": "address",
          "name": "_user",
          "type": "address"
        },
        {
          "internalType": "uint256",
          "name": "_value",
          "type": "uint256"
        },
        {
          "internalType": "uint256",
          "name": "tax",
          "type": "uint256"
        }
      ],
      "name": "getExitPoolStatus",
      "outputs": [
        {
          "internalType": "uint256",
          "name": "",
          "type": "uint256"
        }
      ],
      "stateMutability": "view",
      "type": "function"
    },
    {
      "inputs": [
        {
          "internalType": "address",
          "name": "_user",
          "type": "address"
        },
        {
          "internalType": "uint256",
          "name": "_value",
          "type": "uint256"
        }
      ],
      "name": "getExitPoolEstimation",
      "outputs": [],
      "stateMutability": "view",
      "type": "function"
    },
    {
      "inputs": [
        {
          "internalType": "address",
          "name": "_user",
          "type": "address"
        },
        {
          "internalType": "uint256",
          "name": "_value",
          "type": "uint256"
        }
      ],
      "name": "exitPool",
      "outputs": [],
      "stateMutability": "payable",
      "type": "function"
    }
  ],
  "bytecode": "0x608060405234801561001057600080fd5b50336000806101000a81548173ffffffffffffffffffffffffffffffffffffffff021916908373ffffffffffffffffffffffffffffffffffffffff160217905550610fc9806100606000396000f3fe6080604052600436106100705760003560e01c80636c13da1a1161004e5780636c13da1a146100f957806374760000146101365780638da5cb5b14610161578063924f8cf71461018c57610070565b806306791fc814610075578063564294f71461009e5780635af95010146100ba575b600080fd5b34801561008157600080fd5b5061009c60048036038101906100979190610b5a565b6101b5565b005b6100b860048036038101906100b39190610b5a565b61024e565b005b3480156100c657600080fd5b506100e160048036038101906100dc9190610b9a565b610416565b6040516100f093929190610bd6565b60405180910390f35b34801561010557600080fd5b50610120600480360381019061011b9190610c0d565b610440565b60405161012d9190610c60565b60405180910390f35b34801561014257600080fd5b5061014b610808565b6040516101589190610c60565b60405180910390f35b34801561016d57600080fd5b5061017661080e565b6040516101839190610c8a565b60405180910390f35b34801561019857600080fd5b506101b360048036038101906101ae9190610b5a565b610832565b005b600160008154809291906101c890610cd4565b91905055506040518060600160405280600154815260200142815260200182815250600260008473ffffffffffffffffffffffffffffffffffffffff1673ffffffffffffffffffffffffffffffffffffffff1681526020019081526020016000206000820151816000015560208201518160010155604082015181600201559050505050565b81816000600260008473ffffffffffffffffffffffffffffffffffffffff1673ffffffffffffffffffffffffffffffffffffffff16815260200190815260200160002060000154116102d5576040517f08c379a00000000000000000000000000000000000000000000000000000000081526004016102cc90610d79565b60405180910390fd5b6000600260008473ffffffffffffffffffffffffffffffffffffffff1673ffffffffffffffffffffffffffffffffffffffff168152602001908152602001600020600201541461035a576040517f08c379a000000000000000000000000000000000000000000000000000000000815260040161035190610de5565b60405180910390fd5b600061036583610850565b90508160648260196103779190610e05565b600260008773ffffffffffffffffffffffffffffffffffffffff1673ffffffffffffffffffffffffffffffffffffffff168152602001908152602001600020600201546103c49190610e05565b6103ce9190610e8e565b101561040f576040517f08c379a000000000000000000000000000000000000000000000000000000000815260040161040690610f0b565b60405180910390fd5b5050505050565b60026020528060005260406000206000915090508060000154908060010154908060020154905083565b600083836000600260008473ffffffffffffffffffffffffffffffffffffffff1673ffffffffffffffffffffffffffffffffffffffff16815260200190815260200160002060000154116104c9576040517f08c379a00000000000000000000000000000000000000000000000000000000081526004016104c090610d79565b60405180910390fd5b6000600260008473ffffffffffffffffffffffffffffffffffffffff1673ffffffffffffffffffffffffffffffffffffffff168152602001908152602001600020600201541461054e576040517f08c379a000000000000000000000000000000000000000000000000000000000815260040161054590610de5565b60405180910390fd5b600061055983610850565b905081606482601961056b9190610e05565b600260008773ffffffffffffffffffffffffffffffffffffffff1673ffffffffffffffffffffffffffffffffffffffff168152602001908152602001600020600201546105b89190610e05565b6105c29190610e8e565b1015610603576040517f08c379a00000000000000000000000000000000000000000000000000000000081526004016105fa90610f0b565b60405180910390fd5b600061060e88610850565b90506000810361062d578560006106259190610f2b565b9450506107fe565b600181036106a3578560646019600260008c73ffffffffffffffffffffffffffffffffffffffff1673ffffffffffffffffffffffffffffffffffffffff168152602001908152602001600020600201546106879190610e05565b6106919190610e8e565b61069b9190610f2b565b9450506107fe565b60028103610719578560646032600260008c73ffffffffffffffffffffffffffffffffffffffff1673ffffffffffffffffffffffffffffffffffffffff168152602001908152602001600020600201546106fd9190610e05565b6107079190610e8e565b6107119190610f2b565b9450506107fe565b6003810361078f57856064604b600260008c73ffffffffffffffffffffffffffffffffffffffff1673ffffffffffffffffffffffffffffffffffffffff168152602001908152602001600020600201546107739190610e05565b61077d9190610e8e565b6107879190610f2b565b9450506107fe565b600481036107ed5785600260008a73ffffffffffffffffffffffffffffffffffffffff1673ffffffffffffffffffffffffffffffffffffffff168152602001908152602001600020600201546107e59190610f2b565b9450506107fe565b8560006107fa9190610f2b565b9450505b5050509392505050565b60015481565b60008054906101000a900473ffffffffffffffffffffffffffffffffffffffff1681565b600061083d83610902565b905061084a838383610440565b50505050565b60008042600260008573ffffffffffffffffffffffffffffffffffffffff1673ffffffffffffffffffffffffffffffffffffffff168152602001908152602001600020600101546108a19190610f5f565b90506202a3008110156108b85760009150506108fd565b620546008110156108cd5760019150506108fd565b6207e9008110156108e25760029150506108fd565b620a8c008110156108f75760039150506108fd565b60049150505b919050565b60008061090e83610850565b905060008103610922576000915050610abc565b6001810361098d576064604b600260008673ffffffffffffffffffffffffffffffffffffffff1673ffffffffffffffffffffffffffffffffffffffff1681526020019081526020016000206002015461097b9190610e05565b6109859190610e8e565b915050610abc565b600281036109f85760646032600260008673ffffffffffffffffffffffffffffffffffffffff1673ffffffffffffffffffffffffffffffffffffffff168152602001908152602001600020600201546109e69190610e05565b6109f09190610e8e565b915050610abc565b60038103610a635760646019600260008673ffffffffffffffffffffffffffffffffffffffff1673ffffffffffffffffffffffffffffffffffffffff16815260200190815260200160002060020154610a519190610e05565b610a5b9190610e8e565b915050610abc565b60048103610ab657600260008473ffffffffffffffffffffffffffffffffffffffff1673ffffffffffffffffffffffffffffffffffffffff16815260200190815260200160002060020154915050610abc565b60009150505b919050565b600080fd5b600073ffffffffffffffffffffffffffffffffffffffff82169050919050565b6000610af182610ac6565b9050919050565b610b0181610ae6565b8114610b0c57600080fd5b50565b600081359050610b1e81610af8565b92915050565b6000819050919050565b610b3781610b24565b8114610b4257600080fd5b50565b600081359050610b5481610b2e565b92915050565b60008060408385031215610b7157610b70610ac1565b5b6000610b7f85828601610b0f565b9250506020610b9085828601610b45565b9150509250929050565b600060208284031215610bb057610baf610ac1565b5b6000610bbe84828501610b0f565b91505092915050565b610bd081610b24565b82525050565b6000606082019050610beb6000830186610bc7565b610bf86020830185610bc7565b610c056040830184610bc7565b949350505050565b600080600060608486031215610c2657610c25610ac1565b5b6000610c3486828701610b0f565b9350506020610c4586828701610b45565b9250506040610c5686828701610b45565b9150509250925092565b6000602082019050610c756000830184610bc7565b92915050565b610c8481610ae6565b82525050565b6000602082019050610c9f6000830184610c7b565b92915050565b7f4e487b7100000000000000000000000000000000000000000000000000000000600052601160045260246000fd5b6000610cdf82610b24565b91507fffffffffffffffffffffffffffffffffffffffffffffffffffffffffffffffff8203610d1157610d10610ca5565b5b600182019050919050565b600082825260208201905092915050565b7f4e6f20546f6b656e73204c656e64656420596574000000000000000000000000600082015250565b6000610d63601483610d1c565b9150610d6e82610d2d565b602082019050919050565b60006020820190508181036000830152610d9281610d56565b9050919050565b7f496e73756666696369656e742042616c616e636520496e20506f6f6c00000000600082015250565b6000610dcf601c83610d1c565b9150610dda82610d99565b602082019050919050565b60006020820190508181036000830152610dfe81610dc2565b9050919050565b6000610e1082610b24565b9150610e1b83610b24565b9250817fffffffffffffffffffffffffffffffffffffffffffffffffffffffffffffffff0483118215151615610e5457610e53610ca5565b5b828202905092915050565b7f4e487b7100000000000000000000000000000000000000000000000000000000600052601260045260246000fd5b6000610e9982610b24565b9150610ea483610b24565b925082610eb457610eb3610e5f565b5b828204905092915050565b7f57697468647261776c20616d6f756e7420726573747269637465640000000000600082015250565b6000610ef5601b83610d1c565b9150610f0082610ebf565b602082019050919050565b60006020820190508181036000830152610f2481610ee8565b9050919050565b6000610f3682610b24565b9150610f4183610b24565b9250828201905080821115610f5957610f58610ca5565b5b92915050565b6000610f6a82610b24565b9150610f7583610b24565b9250828203905081811115610f8d57610f8c610ca5565b5b9291505056fea264697066735822122012ffe8602986b91938beb0869fa637478c055b3cba24ba3fd4c02c50bb16ac9264736f6c63430008100033",
  "immutableReferences": {},
  "source": "// SPDX-License-Identifier: UNLICENSED\n\npragma solidity ^0.8.16;\n\ncontract Lending {\n\n    // address of owner\n    address public owner;\n    uint public lendersId;\n    \n    struct lenders {\n        uint ID;\n        uint lendingDate; \n        uint amount;\n    }\n\n    mapping(address => lenders) public Lenders;\n\n    // assign constructor caller address to be owner\n    constructor() { \n        owner = msg.sender;\n    }\n\n    modifier exitPoolValidation(address _user, uint _value) {\n        require(Lenders[_user].ID > 0, \"No Tokens Lended Yet\");\n        require(Lenders[_user].amount == 0, \"Insufficient Balance In Pool\");\n        uint dayDifference = getTimeDifference(_user);\n        require(Lenders[_user].amount * (25*dayDifference)/100 >= _value, \"Withdrawl amount restricted\");\n        _;\n    }\n\n    function enterPool(address _user, uint _value) public {\n        lendersId++;\n        Lenders[_user]= lenders(lendersId, block.timestamp, _value);\n    }\n\n    function getTimeDifference(address _user) internal view returns(uint) {\n        uint timeDiff = Lenders[_user].lendingDate - block.timestamp;\n        if(timeDiff < 2 days) return 0;\n        else if (timeDiff < 4 days) return 1;\n        else if (timeDiff < 6 days) return 2;\n        else if (timeDiff < 8 days) return 3;\n        else return 4;\n    }\n\n    function calculateTaxOnExit(address _user) internal view returns(uint) {\n        uint dayDifference = getTimeDifference(_user);\n        if(dayDifference == 0) return 0;\n        else if (dayDifference == 1) return Lenders[_user].amount * 75 / 100;\n        else if (dayDifference == 2) return Lenders[_user].amount * 50 / 100;\n        else if (dayDifference == 3) return Lenders[_user].amount * 25 / 100;\n        else if (dayDifference == 4) return Lenders[_user].amount;\n        else return 0;\n    }\n\n    function getExitPoolStatus(address _user, uint _value, uint tax) public  exitPoolValidation(_user, _value) view returns(uint) {\n        uint dayDifference = getTimeDifference(_user);\n        if(dayDifference == 0) return 0 + tax;\n        else if (dayDifference == 1) return Lenders[_user].amount * 25 / 100 + tax;\n        else if (dayDifference == 2) return Lenders[_user].amount * 50 / 100 + tax;\n        else if (dayDifference == 3) return Lenders[_user].amount * 75 / 100 + tax;\n        else if (dayDifference == 4) return Lenders[_user].amount + tax;\n        else return 0 + tax;\n    }\n\n    function getExitPoolEstimation(address _user, uint _value) public view {\n        uint _tax = calculateTaxOnExit(_user);\n        getExitPoolStatus(_user, _value, _tax);\n    }\n\n    function exitPool(address _user, uint _value) public payable exitPoolValidation(_user, _value) {\n        // uint timeDiff = Lenders[_user].lendingDate - block.timestamp;\n    }\n\n}",
  "sourcePath": "/home/savan-elluminati/Savan/Blockchain/DeFi for liquidity/contracts/Lending.sol",
  "compiler": {
    "name": "solc",
    "version": "0.8.16+commit.07a7930e.Emscripten.clang"
  },
  "schemaVersion": "3.4.9",
  "updatedAt": "2022-10-06T14:59:21.959Z",
  "devdoc": {
    "kind": "dev",
    "methods": {},
    "version": 1
  },
  "userdoc": {
    "kind": "user",
    "methods": {},
    "version": 1
  }
}